{"abi":[{"type":"function","name":"assignProvider","inputs":[{"name":"jobId","type":"bytes32","internalType":"bytes32"},{"name":"provider","type":"address","internalType":"address"}],"outputs":[],"stateMutability":"nonpayable"},{"type":"function","name":"confidentialProtocolId","inputs":[],"outputs":[{"name":"","type":"uint256","internalType":"uint256"}],"stateMutability":"view"},{"type":"function","name":"createJob","inputs":[{"name":"prompt","type":"bytes32[]","internalType":"externalEuint8[]"},{"name":"inputProof","type":"bytes","internalType":"bytes"}],"outputs":[{"name":"jobId","type":"bytes32","internalType":"bytes32"}],"stateMutability":"nonpayable"},{"type":"function","name":"getResult","inputs":[{"name":"jobId","type":"bytes32","internalType":"bytes32"}],"outputs":[{"name":"","type":"bytes32[]","internalType":"euint8[]"}],"stateMutability":"view"},{"type":"function","name":"jobs","inputs":[{"name":"","type":"bytes32","internalType":"bytes32"}],"outputs":[{"name":"tasker","type":"address","internalType":"address"},{"name":"provider","type":"address","internalType":"address"},{"name":"exists","type":"bool","internalType":"bool"},{"name":"processed","type":"bool","internalType":"bool"}],"stateMutability":"view"},{"type":"function","name":"processJob","inputs":[{"name":"jobId","type":"bytes32","internalType":"bytes32"}],"outputs":[],"stateMutability":"nonpayable"},{"type":"event","name":"JobAssigned","inputs":[{"name":"jobId","type":"bytes32","indexed":true,"internalType":"bytes32"},{"name":"provider","type":"address","indexed":true,"internalType":"address"}],"anonymous":false},{"type":"event","name":"JobCreated","inputs":[{"name":"jobId","type":"bytes32","indexed":true,"internalType":"bytes32"},{"name":"tasker","type":"address","indexed":true,"internalType":"address"},{"name":"length","type":"uint256","indexed":false,"internalType":"uint256"}],"anonymous":false},{"type":"event","name":"JobProcessed","inputs":[{"name":"jobId","type":"bytes32","indexed":true,"internalType":"bytes32"}],"anonymous":false},{"type":"error","name":"SenderNotAllowedToUseHandle","inputs":[{"name":"handle","type":"bytes32","internalType":"bytes32"},{"name":"sender","type":"address","internalType":"address"}]},{"type":"error","name":"ZamaProtocolUnsupported","inputs":[]}],"bytecode":{"object":"0x60806040523461020e57610011610245565b504660010361012a57610022610245565b5061002b610212565b73ca2e8f1f656cd25c01f05d0b243ab1ecd4a8ffb6815273d82385dada1ae3e969447f20a3164f6213100e7560208201527377627828a55156b04ac0dc0eb30467f1a552bb0360408201525b80517f9e7b61f58c47dc699ac88507c4f5bb9f121c03808c5676a8078fe583e464970080546001600160a01b039283166001600160a01b03199182161790915560208301517f9e7b61f58c47dc699ac88507c4f5bb9f121c03808c5676a8078fe583e464970180549184169183169190911790556040928301517f9e7b61f58c47dc699ac88507c4f5bb9f121c03808c5676a8078fe583e4649702805491909316911617905551610bf990816102608239f35b4662aa36a7036101955761013c610245565b50610145610212565b73f0ffdc93b7e186bc2f8cb3daa75d86d1930a433d81527392c920834ec8941d2c77d188936e1f7a6f49c127602082015273be0e383937d564d7ff0bc3b46c51f0bf8d5c311a6040820152610077565b46617a69036101ff576101a6610245565b506101af610212565b7350157cffd6bbfa2dece204a89ec419c23ef5755d815273e3a9105a3a932253a70f126eb1e3b589c643dd24602082015273901f8942346f7ab3a01f6d7613119bca447bb0306040820152610077565b6373cac13b60e01b5f5260045ffd5b5f80fd5b60405190606082016001600160401b0381118382101761023157604052565b634e487b7160e01b5f52604160045260245ffd5b61024d610212565b905f82525f60208301525f604083015256fe6080806040526004361015610012575f80fd5b5f3560e01c90816338ed7cfc146107745750806352805c6f146105355780638927b03014610513578063a7a69be7146101ff578063add4c784146100f35763e72f9a411461005e575f80fd5b346100ef5760403660031901126100ef576024356001600160a01b03811690600435908290036100ef57805f525f602052600160405f206100a560ff600483015416610883565b6100b8828060a01b0382541633146108bf565b0180546001600160a01b031916831790557f6d9400c77bd5f18f64fd64198f82de05854b956caf8412288278cf378bf3a4205f80a3005b5f80fd5b346100ef5760203660031901126100ef576004355f525f60205260405f2060ff6004820154610123828216610883565b61013760018060a01b0384541633146108bf565b60081c16156101ca57600301604051806020835491828152019081935f5260205f20905f5b8181106101b457505050816101729103826107d3565b604051918291602083019060208452518091526040830191905f5b81811061019b575050500390f35b825184528594506020938401939092019160010161018d565b825484526020909301926001928301920161015c565b60405162461bcd60e51b815260206004820152600d60248201526c1b9bdd081c1c9bd8d95cdcd959609a1b6044820152606490fd5b346100ef5760203660031901126100ef57600435805f525f60205260405f206004810190815461023160ff8216610883565b60018201546001600160a01b031633036104df5760081c60ff166104a6575f516020610ba45f395f51905f5254604051639cd07acb60e01b815260016004820152600260248201529390602090859060449082905f906001600160a01b03165af19384156103d0575f94610472575b505f6002830160038401928615925b825481101561043e576102c28184610835565b90549060031b1c908885831561042e575b61041c575b602090606460018060a01b035f516020610ba45f395f51905f525416945f604051968794859363022f65e760e31b8552600485015260248401528160448401525af19182156103d0575f926103e9575b50610333828761084a565b86546001600160a01b03169180156103db575b7f9e7b61f58c47dc699ac88507c4f5bb9f121c03808c5676a8078fe583e4649700546001600160a01b031692833b156100ef57604051635ca4b5b160e11b815260048101929092526001600160a01b03166024820152915f908390604490829084905af19182156103d0576001926103c0575b50016102af565b5f6103ca916107d3565b896103b9565b6040513d5f823e3d90fd5b506103e4610b21565b610346565b9091506020813d8211610414575b81610404602093836107d3565b810103126100ef57519089610328565b3d91506103f7565b506020610427610b21565b90506102d8565b9250610438610b21565b926102d3565b50855461ff0019166101001786557fa1929fe3169a323789e33b1e5786ef486d8093af21edcaf10a34b2dcd345eaf65f80a2005b9093506020813d60201161049e575b8161048e602093836107d3565b810103126100ef575192846102a0565b3d9150610481565b60405162461bcd60e51b8152602060048201526011602482015270185b1c9958591e481c1c9bd8d95cdcd959607a1b6044820152606490fd5b60405162461bcd60e51b815260206004820152600c60248201526b3737ba10383937bb34b232b960a11b6044820152606490fd5b346100ef575f3660031901126100ef57602061052d610af2565b604051908152f35b346100ef5760403660031901126100ef5760043567ffffffffffffffff81116100ef57366023820112156100ef5780600401359067ffffffffffffffff82116100ef573660248360051b830101116100ef5760243567ffffffffffffffff81116100ef57366023820112156100ef5780600401359067ffffffffffffffff821192836100ef576024820191602484369201011192836100ef576105d98695966107f5565b936105e760405195866107d3565b858552601f196105f6876107f5565b01366020870137601f8201601f1916602001965f5b87811015610677578161066357604051906106268a836107d3565b838583526100ef57610652828689602060019601375f6020888301015260248360051b890101356108f8565b61065c828a61080d565b520161060b565b634e487b7160e01b5f52604160045260245ffd5b86888660405160208101913360601b83524260348301528160246054820192015f5b86811061075b5750506020906106b7924381520380845201826107d3565b5190205f81815260208190526040812080546001600160a01b031990811633178255600182018054909116905593600285019290915b8251811015610713578061070d6107066001938661080d565b518661084a565b016106ed565b6020828660048901600161ffff19825416179055604051908152817fc9f761cef4b498085beaa83472253ad1dbcaa175c7e97bd6893d9da4b6ab0868843393a3604051908152f35b8135845260209384019385935090910190600101610699565b346100ef5760203660031901126100ef576080906004355f525f60205260ff60405f2060018060a01b0381541690600460018060a01b0360018301541691015491845260208401528181161515604084015260081c1615156060820152f35b90601f8019910116810190811067ffffffffffffffff82111761066357604052565b67ffffffffffffffff81116106635760051b60200190565b80518210156108215760209160051b010190565b634e487b7160e01b5f52603260045260245ffd5b8054821015610821575f5260205f2001905f90565b8054680100000000000000008110156106635761086c91600182018155610835565b819291549060031b91821b915f19901b1916179055565b1561088a57565b60405162461bcd60e51b815260206004820152600d60248201526c1a9bd8881b9bdd08199bdd5b99609a1b6044820152606490fd5b156108c657565b60405162461bcd60e51b815260206004820152600a6024820152693737ba103a30b9b5b2b960b11b6044820152606490fd5b815115610a2757602091829160018060a01b035f516020610ba45f395f51905f525416905f60a460405180978196829563045fc19560e11b84526004840152336024840152608060448401528051918291826084860152018484015e818101830184905260026064830152601f01601f191681010301925af19081156103d0575f916109f5575b507f9e7b61f58c47dc699ac88507c4f5bb9f121c03808c5676a8078fe583e4649700546001600160a01b0316803b156100ef57604051630f8e573b60e21b815260048101839052336024820152905f908290604490829084905af180156103d0576109e8575090565b5f6109f2916107d3565b90565b90506020813d602011610a1f575b81610a10602093836107d3565b810103126100ef57515f61097f565b3d9150610a03565b80915015610ae9577f9e7b61f58c47dc699ac88507c4f5bb9f121c03808c5676a8078fe583e4649700546040516382027b6d60e01b81526004810183905233602482015290602090829060449082906001600160a01b03165afa9081156103d0575f91610aae575b5015610a985790565b630276b5d960e01b5f526004523360245260445ffd5b90506020813d602011610ae1575b81610ac9602093836107d3565b810103126100ef575180151581036100ef575f610a8f565b3d9150610abc565b506109f2610b21565b46600103610aff57600190565b4662aa36a703610b0f5761271190565b617a694614610b1c575f90565b5f1990565b5f516020610ba45f395f51905f5254604051639cd07acb60e01b81525f60048201819052600260248301529091602091839160449183916001600160a01b03165af19081156103d0575f91610b74575090565b90506020813d602011610b9b575b81610b8f602093836107d3565b810103126100ef575190565b3d9150610b8256fe9e7b61f58c47dc699ac88507c4f5bb9f121c03808c5676a8078fe583e4649701a2646970667358221220536ef9022a5f6b84132dfb035ae28f31bed4902a0580a1391507469a3a095e0c64736f6c63430008230033","linkReferences":{}},"methodIdentifiers":{"assignProvider(bytes32,address)":"e72f9a41","confidentialProtocolId()":"8927b030","createJob(bytes32[],bytes)":"52805c6f","getResult(bytes32)":"add4c784","jobs(bytes32)":"38ed7cfc","processJob(bytes32)":"a7a69be7"},"id":0}